:10000300900005EBF0A3EAF0A3E9F0A3ECF0A3ED75
:01001300F0FC
:10001400E4A3F0A3F0900009E024FFFF900008E0BF
:1000240034FFFEC390000BE09FEE6480F890000A5A
:10003400E064809840030200EFE490000CF0A3F029
:1000440090000AE0FEA3E0FFC3900009E09FFF9048
:100054000008E09ECF24FFCF34FFFE90000CE0FCAC
:10006400A3E0FDC39FEE6480F8EC64809850689030
:100074000005E0FBA3E0FAA3E0F98D828C83A312D0
:1000840000F0FF8D828C831200F0C39F50359000E6
:100094000CE0FEA3E0FFF5828E831200F090000EC8
:1000A400F08F828E83A31200F0FF90000CA3E0F582
:1000B400828C83EF12011D90000EE08D828C83A34D
:1000C40012011D90000DE004F06003020044900052
:1000D4000CE004F002004490000BE004F060030222
:0B00E400001990000AE004F00200196F
:0100EF0022EE
:10013F007B017A087901900000EBF0A3EAF0A3E9C4
:10014F00F0900800E0FF7E00900003EEF0FCA3EFBC
:10015F00F0FD120003900004E0FF900000E0FBA30D
:0B016F00E0FAA3E0F912018A02018609
:0401860012FF002242
:04018A0012FF02223C
:0300000002017A80
:0C017A00787FE4F6D8FD75810702013F94
:1000F000BB010CE58229F582E5833AF583E02250C5
:1001000006E92582F8E622BBFE06E92582F8E2220E
:0D011000E58229F582E5833AF583E4932228
:10011D00F8BB010DE58229F582E5833AF583E8F018
:10012D00225006E92582C8F622BBFE05E92582C8C4
:02013D00F222AC
:00000001FF
